{
  "contractName": "Demo",
  "abi": [
    {
      "inputs": [],
      "name": "_nextTokenId",
      "outputs": [
        {
          "internalType": "uint256",
          "name": "",
          "type": "uint256"
        }
      ],
      "stateMutability": "view",
      "type": "function",
      "constant": true
    },
    {
      "inputs": [
        {
          "internalType": "uint256",
          "name": "_id",
          "type": "uint256"
        }
      ],
      "name": "setDemo",
      "outputs": [],
      "stateMutability": "nonpayable",
      "type": "function"
    },
    {
      "inputs": [],
      "name": "nextToken",
      "outputs": [
        {
          "internalType": "uint256",
          "name": "",
          "type": "uint256"
        }
      ],
      "stateMutability": "view",
      "type": "function",
      "constant": true
    }
  ],
  "bytecode": "0x608060405234801561000f575f80fd5b506101718061001d5f395ff3fe608060405234801561000f575f80fd5b506004361061003f575f3560e01c80634a60f620146100435780635ea41b7a146100615780639499ac541461007d575b5f80fd5b61004b61009b565b60405161005891906100c9565b60405180910390f35b61007b60048036038101906100769190610110565b6100a0565b005b6100856100a9565b60405161009291906100c9565b60405180910390f35b5f5481565b805f8190555050565b5f8054905090565b5f819050919050565b6100c3816100b1565b82525050565b5f6020820190506100dc5f8301846100ba565b92915050565b5f80fd5b6100ef816100b1565b81146100f9575f80fd5b50565b5f8135905061010a816100e6565b92915050565b5f60208284031215610125576101246100e2565b5b5f610132848285016100fc565b9150509291505056fea26469706673582212202dc1e59dfacabda4d67fd5b4bf84e4d45afbfae360d01a176490b691308d136664736f6c63430008140033",
  "immutableReferences": {},
  "source": "// SPDX-License-Identifier: MIT\npragma solidity ^0.8.20;\n\nimport \"@ganache/console.log/console.sol\";\n\n// contract Spacebear is ERC721, ERC721URIStorage, Ownable {\ncontract Demo {\n\n    uint256 public _nextTokenId;\n    function setDemo(uint256 _id) public {\n        _nextTokenId = _id;\n\n    }\n    function nextToken() public view returns(uint256){\n        return _nextTokenId;\n    }\n}",
  "sourcePath": "/home/abinashp/Programs/Solidity/truffle/contracts/Demo.sol",
  "compiler": {
    "name": "solc",
    "version": "0.8.20+commit.a1b79de6.Emscripten.clang"
  },
  "schemaVersion": "3.4.16",
  "updatedAt": "2024-01-24T10:44:41.324Z",
  "networkType": "ethereum",
  "devdoc": {
    "kind": "dev",
    "methods": {},
    "version": 1
  },
  "userdoc": {
    "kind": "user",
    "methods": {},
    "version": 1
  }
}