{
  "contractName": "Spacebear",
  "abi": [
    {
      "inputs": [],
      "stateMutability": "nonpayable",
      "type": "constructor"
    },
    {
      "inputs": [
        {
          "internalType": "address",
          "name": "sender",
          "type": "address"
        },
        {
          "internalType": "uint256",
          "name": "tokenId",
          "type": "uint256"
        },
        {
          "internalType": "address",
          "name": "owner",
          "type": "address"
        }
      ],
      "name": "ERC721IncorrectOwner",
      "type": "error"
    },
    {
      "inputs": [
        {
          "internalType": "address",
          "name": "operator",
          "type": "address"
        },
        {
          "internalType": "uint256",
          "name": "tokenId",
          "type": "uint256"
        }
      ],
      "name": "ERC721InsufficientApproval",
      "type": "error"
    },
    {
      "inputs": [
        {
          "internalType": "address",
          "name": "approver",
          "type": "address"
        }
      ],
      "name": "ERC721InvalidApprover",
      "type": "error"
    },
    {
      "inputs": [
        {
          "internalType": "address",
          "name": "operator",
          "type": "address"
        }
      ],
      "name": "ERC721InvalidOperator",
      "type": "error"
    },
    {
      "inputs": [
        {
          "internalType": "address",
          "name": "owner",
          "type": "address"
        }
      ],
      "name": "ERC721InvalidOwner",
      "type": "error"
    },
    {
      "inputs": [
        {
          "internalType": "address",
          "name": "receiver",
          "type": "address"
        }
      ],
      "name": "ERC721InvalidReceiver",
      "type": "error"
    },
    {
      "inputs": [
        {
          "internalType": "address",
          "name": "sender",
          "type": "address"
        }
      ],
      "name": "ERC721InvalidSender",
      "type": "error"
    },
    {
      "inputs": [
        {
          "internalType": "uint256",
          "name": "tokenId",
          "type": "uint256"
        }
      ],
      "name": "ERC721NonexistentToken",
      "type": "error"
    },
    {
      "inputs": [
        {
          "internalType": "address",
          "name": "owner",
          "type": "address"
        }
      ],
      "name": "OwnableInvalidOwner",
      "type": "error"
    },
    {
      "inputs": [
        {
          "internalType": "address",
          "name": "account",
          "type": "address"
        }
      ],
      "name": "OwnableUnauthorizedAccount",
      "type": "error"
    },
    {
      "anonymous": false,
      "inputs": [
        {
          "indexed": true,
          "internalType": "address",
          "name": "owner",
          "type": "address"
        },
        {
          "indexed": true,
          "internalType": "address",
          "name": "approved",
          "type": "address"
        },
        {
          "indexed": true,
          "internalType": "uint256",
          "name": "tokenId",
          "type": "uint256"
        }
      ],
      "name": "Approval",
      "type": "event"
    },
    {
      "anonymous": false,
      "inputs": [
        {
          "indexed": true,
          "internalType": "address",
          "name": "owner",
          "type": "address"
        },
        {
          "indexed": true,
          "internalType": "address",
          "name": "operator",
          "type": "address"
        },
        {
          "indexed": false,
          "internalType": "bool",
          "name": "approved",
          "type": "bool"
        }
      ],
      "name": "ApprovalForAll",
      "type": "event"
    },
    {
      "anonymous": false,
      "inputs": [
        {
          "indexed": true,
          "internalType": "address",
          "name": "previousOwner",
          "type": "address"
        },
        {
          "indexed": true,
          "internalType": "address",
          "name": "newOwner",
          "type": "address"
        }
      ],
      "name": "OwnershipTransferred",
      "type": "event"
    },
    {
      "anonymous": false,
      "inputs": [
        {
          "indexed": true,
          "internalType": "address",
          "name": "from",
          "type": "address"
        },
        {
          "indexed": true,
          "internalType": "address",
          "name": "to",
          "type": "address"
        },
        {
          "indexed": true,
          "internalType": "uint256",
          "name": "tokenId",
          "type": "uint256"
        }
      ],
      "name": "Transfer",
      "type": "event"
    },
    {
      "inputs": [
        {
          "internalType": "address",
          "name": "to",
          "type": "address"
        },
        {
          "internalType": "uint256",
          "name": "tokenId",
          "type": "uint256"
        }
      ],
      "name": "approve",
      "outputs": [],
      "stateMutability": "nonpayable",
      "type": "function"
    },
    {
      "inputs": [
        {
          "internalType": "address",
          "name": "owner",
          "type": "address"
        }
      ],
      "name": "balanceOf",
      "outputs": [
        {
          "internalType": "uint256",
          "name": "",
          "type": "uint256"
        }
      ],
      "stateMutability": "view",
      "type": "function",
      "constant": true
    },
    {
      "inputs": [
        {
          "internalType": "uint256",
          "name": "tokenId",
          "type": "uint256"
        }
      ],
      "name": "getApproved",
      "outputs": [
        {
          "internalType": "address",
          "name": "",
          "type": "address"
        }
      ],
      "stateMutability": "view",
      "type": "function",
      "constant": true
    },
    {
      "inputs": [
        {
          "internalType": "address",
          "name": "owner",
          "type": "address"
        },
        {
          "internalType": "address",
          "name": "operator",
          "type": "address"
        }
      ],
      "name": "isApprovedForAll",
      "outputs": [
        {
          "internalType": "bool",
          "name": "",
          "type": "bool"
        }
      ],
      "stateMutability": "view",
      "type": "function",
      "constant": true
    },
    {
      "inputs": [],
      "name": "name",
      "outputs": [
        {
          "internalType": "string",
          "name": "",
          "type": "string"
        }
      ],
      "stateMutability": "view",
      "type": "function",
      "constant": true
    },
    {
      "inputs": [],
      "name": "owner",
      "outputs": [
        {
          "internalType": "address",
          "name": "",
          "type": "address"
        }
      ],
      "stateMutability": "view",
      "type": "function",
      "constant": true
    },
    {
      "inputs": [
        {
          "internalType": "uint256",
          "name": "tokenId",
          "type": "uint256"
        }
      ],
      "name": "ownerOf",
      "outputs": [
        {
          "internalType": "address",
          "name": "",
          "type": "address"
        }
      ],
      "stateMutability": "view",
      "type": "function",
      "constant": true
    },
    {
      "inputs": [],
      "name": "renounceOwnership",
      "outputs": [],
      "stateMutability": "nonpayable",
      "type": "function"
    },
    {
      "inputs": [
        {
          "internalType": "address",
          "name": "from",
          "type": "address"
        },
        {
          "internalType": "address",
          "name": "to",
          "type": "address"
        },
        {
          "internalType": "uint256",
          "name": "tokenId",
          "type": "uint256"
        }
      ],
      "name": "safeTransferFrom",
      "outputs": [],
      "stateMutability": "nonpayable",
      "type": "function"
    },
    {
      "inputs": [
        {
          "internalType": "address",
          "name": "from",
          "type": "address"
        },
        {
          "internalType": "address",
          "name": "to",
          "type": "address"
        },
        {
          "internalType": "uint256",
          "name": "tokenId",
          "type": "uint256"
        },
        {
          "internalType": "bytes",
          "name": "data",
          "type": "bytes"
        }
      ],
      "name": "safeTransferFrom",
      "outputs": [],
      "stateMutability": "nonpayable",
      "type": "function"
    },
    {
      "inputs": [
        {
          "internalType": "address",
          "name": "operator",
          "type": "address"
        },
        {
          "internalType": "bool",
          "name": "approved",
          "type": "bool"
        }
      ],
      "name": "setApprovalForAll",
      "outputs": [],
      "stateMutability": "nonpayable",
      "type": "function"
    },
    {
      "inputs": [
        {
          "internalType": "bytes4",
          "name": "interfaceId",
          "type": "bytes4"
        }
      ],
      "name": "supportsInterface",
      "outputs": [
        {
          "internalType": "bool",
          "name": "",
          "type": "bool"
        }
      ],
      "stateMutability": "view",
      "type": "function",
      "constant": true
    },
    {
      "inputs": [],
      "name": "symbol",
      "outputs": [
        {
          "internalType": "string",
          "name": "",
          "type": "string"
        }
      ],
      "stateMutability": "view",
      "type": "function",
      "constant": true
    },
    {
      "inputs": [
        {
          "internalType": "address",
          "name": "from",
          "type": "address"
        },
        {
          "internalType": "address",
          "name": "to",
          "type": "address"
        },
        {
          "internalType": "uint256",
          "name": "tokenId",
          "type": "uint256"
        }
      ],
      "name": "transferFrom",
      "outputs": [],
      "stateMutability": "nonpayable",
      "type": "function"
    },
    {
      "inputs": [
        {
          "internalType": "address",
          "name": "newOwner",
          "type": "address"
        }
      ],
      "name": "transferOwnership",
      "outputs": [],
      "stateMutability": "nonpayable",
      "type": "function"
    },
    {
      "inputs": [],
      "name": "buyToken",
      "outputs": [],
      "stateMutability": "payable",
      "type": "function",
      "payable": true
    },
    {
      "inputs": [
        {
          "internalType": "address",
          "name": "to",
          "type": "address"
        }
      ],
      "name": "safeMint",
      "outputs": [],
      "stateMutability": "nonpayable",
      "type": "function"
    },
    {
      "inputs": [
        {
          "internalType": "uint256",
          "name": "tokenId",
          "type": "uint256"
        }
      ],
      "name": "tokenURI",
      "outputs": [
        {
          "internalType": "string",
          "name": "",
          "type": "string"
        }
      ],
      "stateMutability": "pure",
      "type": "function",
      "constant": true
    }
  ],
  "bytecode": "0x608060405234801562000010575f80fd5b50336040518060400160405280600981526020017f53706163656265617200000000000000000000000000000000000000000000008152506040518060400160405280600381526020017f5342520000000000000000000000000000000000000000000000000000000000815250815f90816200008e919062000455565b508060019081620000a0919062000455565b5050505f73ffffffffffffffffffffffffffffffffffffffff168173ffffffffffffffffffffffffffffffffffffffff160362000116575f6040517f1e4fbdf70000000000000000000000000000000000000000000000000000000081526004016200010d91906200057c565b60405180910390fd5b62000127816200012e60201b60201c565b5062000597565b5f60065f9054906101000a900473ffffffffffffffffffffffffffffffffffffffff1690508160065f6101000a81548173ffffffffffffffffffffffffffffffffffffffff021916908373ffffffffffffffffffffffffffffffffffffffff1602179055508173ffffffffffffffffffffffffffffffffffffffff168173ffffffffffffffffffffffffffffffffffffffff167f8be0079c531659141344cd1fd0a4f28419497f9722a3daafe3b4186f6b6457e060405160405180910390a35050565b5f81519050919050565b7f4e487b71000000000000000000000000000000000000000000000000000000005f52604160045260245ffd5b7f4e487b71000000000000000000000000000000000000000000000000000000005f52602260045260245ffd5b5f60028204905060018216806200026d57607f821691505b60208210810362000283576200028262000228565b5b50919050565b5f819050815f5260205f209050919050565b5f6020601f8301049050919050565b5f82821b905092915050565b5f60088302620002e77fffffffffffffffffffffffffffffffffffffffffffffffffffffffffffffffff82620002aa565b620002f38683620002aa565b95508019841693508086168417925050509392505050565b5f819050919050565b5f819050919050565b5f6200033d6200033762000331846200030b565b62000314565b6200030b565b9050919050565b5f819050919050565b62000358836200031d565b62000370620003678262000344565b848454620002b6565b825550505050565b5f90565b6200038662000378565b620003938184846200034d565b505050565b5b81811015620003ba57620003ae5f826200037c565b60018101905062000399565b5050565b601f8211156200040957620003d38162000289565b620003de846200029b565b81016020851015620003ee578190505b62000406620003fd856200029b565b83018262000398565b50505b505050565b5f82821c905092915050565b5f6200042b5f19846008026200040e565b1980831691505092915050565b5f6200044583836200041a565b9150826002028217905092915050565b6200046082620001f1565b67ffffffffffffffff8111156200047c576200047b620001fb565b5b62000488825462000255565b62000495828285620003be565b5f60209050601f831160018114620004cb575f8415620004b6578287015190505b620004c2858262000438565b86555062000531565b601f198416620004db8662000289565b5f5b828110156200050457848901518255600182019150602085019450602081019050620004dd565b8683101562000524578489015162000520601f8916826200041a565b8355505b6001600288020188555050505b505050505050565b5f73ffffffffffffffffffffffffffffffffffffffff82169050919050565b5f620005648262000539565b9050919050565b620005768162000558565b82525050565b5f602082019050620005915f8301846200056b565b92915050565b61217b80620005a55f395ff3fe608060405260043610610108575f3560e01c8063715018a611610094578063a482171911610063578063a482171914610358578063b88d4fde14610362578063c87b56dd1461038a578063e985e9c5146103c6578063f2fde38b1461040257610108565b8063715018a6146102c65780638da5cb5b146102dc57806395d89b4114610306578063a22cb4651461033057610108565b806323b872dd116100db57806323b872dd146101d657806340d097c3146101fe57806342842e0e146102265780636352211e1461024e57806370a082311461028a57610108565b806301ffc9a71461010c57806306fdde0314610148578063081812fc14610172578063095ea7b3146101ae575b5f80fd5b348015610117575f80fd5b50610132600480360381019061012d9190611832565b61042a565b60405161013f9190611877565b60405180910390f35b348015610153575f80fd5b5061015c61050b565b604051610169919061191a565b60405180910390f35b34801561017d575f80fd5b506101986004803603810190610193919061196d565b61059a565b6040516101a591906119d7565b60405180910390f35b3480156101b9575f80fd5b506101d460048036038101906101cf9190611a1a565b6105b5565b005b3480156101e1575f80fd5b506101fc60048036038101906101f79190611a58565b6105cb565b005b348015610209575f80fd5b50610224600480360381019061021f9190611aa8565b6106ca565b005b348015610231575f80fd5b5061024c60048036038101906102479190611a58565b6106f9565b005b348015610259575f80fd5b50610274600480360381019061026f919061196d565b610718565b60405161028191906119d7565b60405180910390f35b348015610295575f80fd5b506102b060048036038101906102ab9190611aa8565b610729565b6040516102bd9190611ae2565b60405180910390f35b3480156102d1575f80fd5b506102da6107df565b005b3480156102e7575f80fd5b506102f06107f2565b6040516102fd91906119d7565b60405180910390f35b348015610311575f80fd5b5061031a61081a565b604051610327919061191a565b60405180910390f35b34801561033b575f80fd5b5061035660048036038101906103519190611b25565b6108aa565b005b6103606108c0565b005b34801561036d575f80fd5b5061038860048036038101906103839190611c8f565b610926565b005b348015610395575f80fd5b506103b060048036038101906103ab919061196d565b610943565b6040516103bd919061191a565b60405180910390f35b3480156103d1575f80fd5b506103ec60048036038101906103e79190611d0f565b610981565b6040516103f99190611877565b60405180910390f35b34801561040d575f80fd5b5061042860048036038101906104239190611aa8565b610a0f565b005b5f7f80ac58cd000000000000000000000000000000000000000000000000000000007bffffffffffffffffffffffffffffffffffffffffffffffffffffffff1916827bffffffffffffffffffffffffffffffffffffffffffffffffffffffff191614806104f457507f5b5e139f000000000000000000000000000000000000000000000000000000007bffffffffffffffffffffffffffffffffffffffffffffffffffffffff1916827bffffffffffffffffffffffffffffffffffffffffffffffffffffffff1916145b80610504575061050382610a93565b5b9050919050565b60605f805461051990611d7a565b80601f016020809104026020016040519081016040528092919081815260200182805461054590611d7a565b80156105905780601f1061056757610100808354040283529160200191610590565b820191905f5260205f20905b81548152906001019060200180831161057357829003601f168201915b5050505050905090565b5f6105a482610afc565b506105ae82610b82565b9050919050565b6105c782826105c2610bbb565b610bc2565b5050565b5f73ffffffffffffffffffffffffffffffffffffffff168273ffffffffffffffffffffffffffffffffffffffff160361063b575f6040517f64a0ae9200000000000000000000000000000000000000000000000000000000815260040161063291906119d7565b60405180910390fd5b5f61064e8383610649610bbb565b610bd4565b90508373ffffffffffffffffffffffffffffffffffffffff168173ffffffffffffffffffffffffffffffffffffffff16146106c4578382826040517f64283d7b0000000000000000000000000000000000000000000000000000000081526004016106bb93929190611daa565b60405180910390fd5b50505050565b6106d2610ddf565b5f60075f8154809291906106e590611e0c565b9190505590506106f58282610e66565b5050565b61071383838360405180602001604052805f815250610926565b505050565b5f61072282610afc565b9050919050565b5f8073ffffffffffffffffffffffffffffffffffffffff168273ffffffffffffffffffffffffffffffffffffffff160361079a575f6040517f89c62b6400000000000000000000000000000000000000000000000000000000815260040161079191906119d7565b60405180910390fd5b60035f8373ffffffffffffffffffffffffffffffffffffffff1673ffffffffffffffffffffffffffffffffffffffff1681526020019081526020015f20549050919050565b6107e7610ddf565b6107f05f610e83565b565b5f60065f9054906101000a900473ffffffffffffffffffffffffffffffffffffffff16905090565b60606001805461082990611d7a565b80601f016020809104026020016040519081016040528092919081815260200182805461085590611d7a565b80156108a05780601f10610877576101008083540402835291602001916108a0565b820191905f5260205f20905b81548152906001019060200180831161088357829003601f168201915b5050505050905090565b6108bc6108b5610bbb565b8383610f46565b5050565b5f60075f8154809291906108d390611e0c565b9190505590506109196040518060400160405280600881526020017f476f74206865726500000000000000000000000000000000000000000000000081525082346110af565b6109233382610e66565b50565b6109318484846105cb565b61093d8484848461114e565b50505050565b606061094d611300565b60018361095a9190611e53565b60405160200161096b929190611f74565b6040516020818303038152906040529050919050565b5f60055f8473ffffffffffffffffffffffffffffffffffffffff1673ffffffffffffffffffffffffffffffffffffffff1681526020019081526020015f205f8373ffffffffffffffffffffffffffffffffffffffff1673ffffffffffffffffffffffffffffffffffffffff1681526020019081526020015f205f9054906101000a900460ff16905092915050565b610a17610ddf565b5f73ffffffffffffffffffffffffffffffffffffffff168173ffffffffffffffffffffffffffffffffffffffff1603610a87575f6040517f1e4fbdf7000000000000000000000000000000000000000000000000000000008152600401610a7e91906119d7565b60405180910390fd5b610a9081610e83565b50565b5f7f01ffc9a7000000000000000000000000000000000000000000000000000000007bffffffffffffffffffffffffffffffffffffffffffffffffffffffff1916827bffffffffffffffffffffffffffffffffffffffffffffffffffffffff1916149050919050565b5f80610b0783611320565b90505f73ffffffffffffffffffffffffffffffffffffffff168173ffffffffffffffffffffffffffffffffffffffff1603610b7957826040517f7e273289000000000000000000000000000000000000000000000000000000008152600401610b709190611ae2565b60405180910390fd5b80915050919050565b5f60045f8381526020019081526020015f205f9054906101000a900473ffffffffffffffffffffffffffffffffffffffff169050919050565b5f33905090565b610bcf8383836001611359565b505050565b5f80610bdf84611320565b90505f73ffffffffffffffffffffffffffffffffffffffff168373ffffffffffffffffffffffffffffffffffffffff1614610c2057610c1f818486611518565b5b5f73ffffffffffffffffffffffffffffffffffffffff168173ffffffffffffffffffffffffffffffffffffffff1614610cab57610c5f5f855f80611359565b600160035f8373ffffffffffffffffffffffffffffffffffffffff1673ffffffffffffffffffffffffffffffffffffffff1681526020019081526020015f205f82825403925050819055505b5f73ffffffffffffffffffffffffffffffffffffffff168573ffffffffffffffffffffffffffffffffffffffff1614610d2a57600160035f8773ffffffffffffffffffffffffffffffffffffffff1673ffffffffffffffffffffffffffffffffffffffff1681526020019081526020015f205f82825401925050819055505b8460025f8681526020019081526020015f205f6101000a81548173ffffffffffffffffffffffffffffffffffffffff021916908373ffffffffffffffffffffffffffffffffffffffff160217905550838573ffffffffffffffffffffffffffffffffffffffff168273ffffffffffffffffffffffffffffffffffffffff167fddf252ad1be2c89b69c2b068fc378daa952ba7f163c4a11628f55a4df523b3ef60405160405180910390a4809150509392505050565b610de7610bbb565b73ffffffffffffffffffffffffffffffffffffffff16610e056107f2565b73ffffffffffffffffffffffffffffffffffffffff1614610e6457610e28610bbb565b6040517f118cdaa7000000000000000000000000000000000000000000000000000000008152600401610e5b91906119d7565b60405180910390fd5b565b610e7f828260405180602001604052805f8152506115db565b5050565b5f60065f9054906101000a900473ffffffffffffffffffffffffffffffffffffffff1690508160065f6101000a81548173ffffffffffffffffffffffffffffffffffffffff021916908373ffffffffffffffffffffffffffffffffffffffff1602179055508173ffffffffffffffffffffffffffffffffffffffff168173ffffffffffffffffffffffffffffffffffffffff167f8be0079c531659141344cd1fd0a4f28419497f9722a3daafe3b4186f6b6457e060405160405180910390a35050565b5f73ffffffffffffffffffffffffffffffffffffffff168273ffffffffffffffffffffffffffffffffffffffff1603610fb657816040517f5b08ba18000000000000000000000000000000000000000000000000000000008152600401610fad91906119d7565b60405180910390fd5b8060055f8573ffffffffffffffffffffffffffffffffffffffff1673ffffffffffffffffffffffffffffffffffffffff1681526020019081526020015f205f8473ffffffffffffffffffffffffffffffffffffffff1673ffffffffffffffffffffffffffffffffffffffff1681526020019081526020015f205f6101000a81548160ff0219169083151502179055508173ffffffffffffffffffffffffffffffffffffffff168373ffffffffffffffffffffffffffffffffffffffff167f17307eab39ab6107e8899845ad3d59bd9653f200f220920489ca2b5937696c31836040516110a29190611877565b60405180910390a3505050565b6111498383836040516024016110c793929190611fb1565b6040516020818303038152906040527fca47c4eb000000000000000000000000000000000000000000000000000000007bffffffffffffffffffffffffffffffffffffffffffffffffffffffff19166020820180517bffffffffffffffffffffffffffffffffffffffffffffffffffffffff83818316178352505050506115f6565b505050565b5f8373ffffffffffffffffffffffffffffffffffffffff163b11156112fa578273ffffffffffffffffffffffffffffffffffffffff1663150b7a02611191610bbb565b8685856040518563ffffffff1660e01b81526004016111b3949392919061203f565b6020604051808303815f875af19250505080156111ee57506040513d601f19601f820116820180604052508101906111eb919061209d565b60015b61126f573d805f811461121c576040519150601f19603f3d011682016040523d82523d5f602084013e611221565b606091505b505f81510361126757836040517f64a0ae9200000000000000000000000000000000000000000000000000000000815260040161125e91906119d7565b60405180910390fd5b805181602001fd5b63150b7a0260e01b7bffffffffffffffffffffffffffffffffffffffffffffffffffffffff1916817bffffffffffffffffffffffffffffffffffffffffffffffffffffffff1916146112f857836040517f64a0ae920000000000000000000000000000000000000000000000000000000081526004016112ef91906119d7565b60405180910390fd5b505b50505050565b60606040518060800160405280605681526020016120f060569139905090565b5f60025f8381526020019081526020015f205f9054906101000a900473ffffffffffffffffffffffffffffffffffffffff169050919050565b808061139157505f73ffffffffffffffffffffffffffffffffffffffff168273ffffffffffffffffffffffffffffffffffffffff1614155b156114c3575f6113a084610afc565b90505f73ffffffffffffffffffffffffffffffffffffffff168373ffffffffffffffffffffffffffffffffffffffff161415801561140a57508273ffffffffffffffffffffffffffffffffffffffff168173ffffffffffffffffffffffffffffffffffffffff1614155b801561141d575061141b8184610981565b155b1561145f57826040517fa9fbf51f00000000000000000000000000000000000000000000000000000000815260040161145691906119d7565b60405180910390fd5b81156114c157838573ffffffffffffffffffffffffffffffffffffffff168273ffffffffffffffffffffffffffffffffffffffff167f8c5be1e5ebec7d5bd14f71427d1e84f3dd0314c0f7b2291e5b200ac8c7c3b92560405160405180910390a45b505b8360045f8581526020019081526020015f205f6101000a81548173ffffffffffffffffffffffffffffffffffffffff021916908373ffffffffffffffffffffffffffffffffffffffff16021790555050505050565b611523838383611619565b6115d6575f73ffffffffffffffffffffffffffffffffffffffff168373ffffffffffffffffffffffffffffffffffffffff160361159757806040517f7e27328900000000000000000000000000000000000000000000000000000000815260040161158e9190611ae2565b60405180910390fd5b81816040517f177e802f0000000000000000000000000000000000000000000000000000000081526004016115cd9291906120c8565b60405180910390fd5b505050565b6115e583836116d9565b6115f15f84848461114e565b505050565b5f6a636f6e736f6c652e6c6f6790508151602083015f808383865afa5050505050565b5f8073ffffffffffffffffffffffffffffffffffffffff168373ffffffffffffffffffffffffffffffffffffffff16141580156116d057508273ffffffffffffffffffffffffffffffffffffffff168473ffffffffffffffffffffffffffffffffffffffff16148061169157506116908484610981565b5b806116cf57508273ffffffffffffffffffffffffffffffffffffffff166116b783610b82565b73ffffffffffffffffffffffffffffffffffffffff16145b5b90509392505050565b5f73ffffffffffffffffffffffffffffffffffffffff168273ffffffffffffffffffffffffffffffffffffffff1603611749575f6040517f64a0ae9200000000000000000000000000000000000000000000000000000000815260040161174091906119d7565b60405180910390fd5b5f61175583835f610bd4565b90505f73ffffffffffffffffffffffffffffffffffffffff168173ffffffffffffffffffffffffffffffffffffffff16146117c7575f6040517f73c6ac6e0000000000000000000000000000000000000000000000000000000081526004016117be91906119d7565b60405180910390fd5b505050565b5f604051905090565b5f80fd5b5f80fd5b5f7fffffffff0000000000000000000000000000000000000000000000000000000082169050919050565b611811816117dd565b811461181b575f80fd5b50565b5f8135905061182c81611808565b92915050565b5f60208284031215611847576118466117d5565b5b5f6118548482850161181e565b91505092915050565b5f8115159050919050565b6118718161185d565b82525050565b5f60208201905061188a5f830184611868565b92915050565b5f81519050919050565b5f82825260208201905092915050565b5f5b838110156118c75780820151818401526020810190506118ac565b5f8484015250505050565b5f601f19601f8301169050919050565b5f6118ec82611890565b6118f6818561189a565b93506119068185602086016118aa565b61190f816118d2565b840191505092915050565b5f6020820190508181035f83015261193281846118e2565b905092915050565b5f819050919050565b61194c8161193a565b8114611956575f80fd5b50565b5f8135905061196781611943565b92915050565b5f60208284031215611982576119816117d5565b5b5f61198f84828501611959565b91505092915050565b5f73ffffffffffffffffffffffffffffffffffffffff82169050919050565b5f6119c182611998565b9050919050565b6119d1816119b7565b82525050565b5f6020820190506119ea5f8301846119c8565b92915050565b6119f9816119b7565b8114611a03575f80fd5b50565b5f81359050611a14816119f0565b92915050565b5f8060408385031215611a3057611a2f6117d5565b5b5f611a3d85828601611a06565b9250506020611a4e85828601611959565b9150509250929050565b5f805f60608486031215611a6f57611a6e6117d5565b5b5f611a7c86828701611a06565b9350506020611a8d86828701611a06565b9250506040611a9e86828701611959565b9150509250925092565b5f60208284031215611abd57611abc6117d5565b5b5f611aca84828501611a06565b91505092915050565b611adc8161193a565b82525050565b5f602082019050611af55f830184611ad3565b92915050565b611b048161185d565b8114611b0e575f80fd5b50565b5f81359050611b1f81611afb565b92915050565b5f8060408385031215611b3b57611b3a6117d5565b5b5f611b4885828601611a06565b9250506020611b5985828601611b11565b9150509250929050565b5f80fd5b5f80fd5b7f4e487b71000000000000000000000000000000000000000000000000000000005f52604160045260245ffd5b611ba1826118d2565b810181811067ffffffffffffffff82111715611bc057611bbf611b6b565b5b80604052505050565b5f611bd26117cc565b9050611bde8282611b98565b919050565b5f67ffffffffffffffff821115611bfd57611bfc611b6b565b5b611c06826118d2565b9050602081019050919050565b828183375f83830152505050565b5f611c33611c2e84611be3565b611bc9565b905082815260208101848484011115611c4f57611c4e611b67565b5b611c5a848285611c13565b509392505050565b5f82601f830112611c7657611c75611b63565b5b8135611c86848260208601611c21565b91505092915050565b5f805f8060808587031215611ca757611ca66117d5565b5b5f611cb487828801611a06565b9450506020611cc587828801611a06565b9350506040611cd687828801611959565b925050606085013567ffffffffffffffff811115611cf757611cf66117d9565b5b611d0387828801611c62565b91505092959194509250565b5f8060408385031215611d2557611d246117d5565b5b5f611d3285828601611a06565b9250506020611d4385828601611a06565b9150509250929050565b7f4e487b71000000000000000000000000000000000000000000000000000000005f52602260045260245ffd5b5f6002820490506001821680611d9157607f821691505b602082108103611da457611da3611d4d565b5b50919050565b5f606082019050611dbd5f8301866119c8565b611dca6020830185611ad3565b611dd760408301846119c8565b949350505050565b7f4e487b71000000000000000000000000000000000000000000000000000000005f52601160045260245ffd5b5f611e168261193a565b91507fffffffffffffffffffffffffffffffffffffffffffffffffffffffffffffffff8203611e4857611e47611ddf565b5b600182019050919050565b5f611e5d8261193a565b9150611e688361193a565b9250828201905080821115611e8057611e7f611ddf565b5b92915050565b5f81905092915050565b5f611e9a82611890565b611ea48185611e86565b9350611eb48185602086016118aa565b80840191505092915050565b7f7370616365626561725f000000000000000000000000000000000000000000005f82015250565b5f611ef4600a83611e86565b9150611eff82611ec0565b600a82019050919050565b5f819050919050565b611f24611f1f8261193a565b611f0a565b82525050565b7f2e6a736f6e0000000000000000000000000000000000000000000000000000005f82015250565b5f611f5e600583611e86565b9150611f6982611f2a565b600582019050919050565b5f611f7f8285611e90565b9150611f8a82611ee8565b9150611f968284611f13565b602082019150611fa582611f52565b91508190509392505050565b5f6060820190508181035f830152611fc981866118e2565b9050611fd86020830185611ad3565b611fe56040830184611ad3565b949350505050565b5f81519050919050565b5f82825260208201905092915050565b5f61201182611fed565b61201b8185611ff7565b935061202b8185602086016118aa565b612034816118d2565b840191505092915050565b5f6080820190506120525f8301876119c8565b61205f60208301866119c8565b61206c6040830185611ad3565b818103606083015261207e8184612007565b905095945050505050565b5f8151905061209781611808565b92915050565b5f602082840312156120b2576120b16117d5565b5b5f6120bf84828501612089565b91505092915050565b5f6040820190506120db5f8301856119c8565b6120e86020830184611ad3565b939250505056fe68747470733a2f2f657468657265756d2d626c6f636b636861696e2d646576656c6f7065722e636f6d2f323032322d30362d6e66742d74727566666c652d686172646861742d666f756e6472792f6e6674646174612fa2646970667358221220a415e62597777f26d8eae78693bef00cf29c2154af4515c5b8f4b79d9e39e7e864736f6c63430008140033",
  "immutableReferences": {},
  "source": "// SPDX-License-Identifier: MIT\npragma solidity ^0.8.20;\n\nimport \"@openzeppelin/contracts/token/ERC721/ERC721.sol\";\n// import \"@openzeppelin/contracts/token/ERC721/extensions/ERC721URIStorage.sol\";\nimport \"@openzeppelin/contracts/access/Ownable.sol\";\nimport \"@ganache/console.log/console.sol\";\n\n// contract Spacebear is ERC721, ERC721URIStorage, Ownable {\ncontract Spacebear is ERC721, Ownable {\n\n    uint256 private _nextTokenId;\n\n    constructor()\n        ERC721(\"Spacebear\", \"SBR\")\n        Ownable(msg.sender)\n    {}\n\n    function _baseURI() internal pure override returns (string memory) {\n        return \"https://ethereum-blockchain-developer.com/2022-06-nft-truffle-hardhat-foundry/nftdata/\";\n    }\n\n    function buyToken() public payable{\n        uint256 tokenId = _nextTokenId++;\n        console.log(\"Got here\",tokenId,msg.value);\n        //require(msg.value == tokenId * 0.1 ether,\"Wrong amount of funds sent\");\n        _safeMint(msg.sender, tokenId);\n    }\n    // function safeMint(address to, string memory uri) public onlyOwner {\n    function safeMint(address to) public onlyOwner {\n        uint256 tokenId = _nextTokenId++;\n        _safeMint(to, tokenId);\n        // _setTokenURI(tokenId, uri);\n    }\n\n    // The following functions are overrides required by Solidity.\n\n    function tokenURI(uint256 tokenId)\n        public\n        pure\n        //view\n        //override(ERC721, ERC721URIStorage)\n        override(ERC721)\n        returns (string memory)\n    {\n        // return super.tokenURI(tokenId);\n        return string(abi.encodePacked(_baseURI(),\"spacebear_\",(tokenId+1),\".json\"));\n    }\n\n    // function supportsInterface(bytes4 interfaceId)\n    //     public\n    //     view\n    //     override(ERC721, ERC721URIStorage)\n    //     returns (bool)\n    // {\n    //     return super.supportsInterface(interfaceId);\n    // }\n}",
  "sourcePath": "/home/abinashp/Programs/Solidity/truffle/contracts/Spacebear.sol",
  "compiler": {
    "name": "solc",
    "version": "0.8.20+commit.a1b79de6.Emscripten.clang"
  },
  "schemaVersion": "3.4.16",
  "updatedAt": "2024-01-24T11:02:41.325Z",
  "networkType": "ethereum",
  "devdoc": {
    "errors": {
      "ERC721IncorrectOwner(address,uint256,address)": [
        {
          "details": "Indicates an error related to the ownership over a particular token. Used in transfers.",
          "params": {
            "owner": "Address of the current owner of a token.",
            "sender": "Address whose tokens are being transferred.",
            "tokenId": "Identifier number of a token."
          }
        }
      ],
      "ERC721InsufficientApproval(address,uint256)": [
        {
          "details": "Indicates a failure with the `operator`s approval. Used in transfers.",
          "params": {
            "operator": "Address that may be allowed to operate on tokens without being their owner.",
            "tokenId": "Identifier number of a token."
          }
        }
      ],
      "ERC721InvalidApprover(address)": [
        {
          "details": "Indicates a failure with the `approver` of a token to be approved. Used in approvals.",
          "params": {
            "approver": "Address initiating an approval operation."
          }
        }
      ],
      "ERC721InvalidOperator(address)": [
        {
          "details": "Indicates a failure with the `operator` to be approved. Used in approvals.",
          "params": {
            "operator": "Address that may be allowed to operate on tokens without being their owner."
          }
        }
      ],
      "ERC721InvalidOwner(address)": [
        {
          "details": "Indicates that an address can't be an owner. For example, `address(0)` is a forbidden owner in EIP-20. Used in balance queries.",
          "params": {
            "owner": "Address of the current owner of a token."
          }
        }
      ],
      "ERC721InvalidReceiver(address)": [
        {
          "details": "Indicates a failure with the token `receiver`. Used in transfers.",
          "params": {
            "receiver": "Address to which tokens are being transferred."
          }
        }
      ],
      "ERC721InvalidSender(address)": [
        {
          "details": "Indicates a failure with the token `sender`. Used in transfers.",
          "params": {
            "sender": "Address whose tokens are being transferred."
          }
        }
      ],
      "ERC721NonexistentToken(uint256)": [
        {
          "details": "Indicates a `tokenId` whose `owner` is the zero address.",
          "params": {
            "tokenId": "Identifier number of a token."
          }
        }
      ],
      "OwnableInvalidOwner(address)": [
        {
          "details": "The owner is not a valid owner account. (eg. `address(0)`)"
        }
      ],
      "OwnableUnauthorizedAccount(address)": [
        {
          "details": "The caller account is not authorized to perform an operation."
        }
      ]
    },
    "events": {
      "Approval(address,address,uint256)": {
        "details": "Emitted when `owner` enables `approved` to manage the `tokenId` token."
      },
      "ApprovalForAll(address,address,bool)": {
        "details": "Emitted when `owner` enables or disables (`approved`) `operator` to manage all of its assets."
      },
      "Transfer(address,address,uint256)": {
        "details": "Emitted when `tokenId` token is transferred from `from` to `to`."
      }
    },
    "kind": "dev",
    "methods": {
      "approve(address,uint256)": {
        "details": "See {IERC721-approve}."
      },
      "balanceOf(address)": {
        "details": "See {IERC721-balanceOf}."
      },
      "getApproved(uint256)": {
        "details": "See {IERC721-getApproved}."
      },
      "isApprovedForAll(address,address)": {
        "details": "See {IERC721-isApprovedForAll}."
      },
      "name()": {
        "details": "See {IERC721Metadata-name}."
      },
      "owner()": {
        "details": "Returns the address of the current owner."
      },
      "ownerOf(uint256)": {
        "details": "See {IERC721-ownerOf}."
      },
      "renounceOwnership()": {
        "details": "Leaves the contract without owner. It will not be possible to call `onlyOwner` functions. Can only be called by the current owner. NOTE: Renouncing ownership will leave the contract without an owner, thereby disabling any functionality that is only available to the owner."
      },
      "safeTransferFrom(address,address,uint256)": {
        "details": "See {IERC721-safeTransferFrom}."
      },
      "safeTransferFrom(address,address,uint256,bytes)": {
        "details": "See {IERC721-safeTransferFrom}."
      },
      "setApprovalForAll(address,bool)": {
        "details": "See {IERC721-setApprovalForAll}."
      },
      "supportsInterface(bytes4)": {
        "details": "See {IERC165-supportsInterface}."
      },
      "symbol()": {
        "details": "See {IERC721Metadata-symbol}."
      },
      "tokenURI(uint256)": {
        "details": "See {IERC721Metadata-tokenURI}."
      },
      "transferFrom(address,address,uint256)": {
        "details": "See {IERC721-transferFrom}."
      },
      "transferOwnership(address)": {
        "details": "Transfers ownership of the contract to a new account (`newOwner`). Can only be called by the current owner."
      }
    },
    "version": 1
  },
  "userdoc": {
    "kind": "user",
    "methods": {},
    "version": 1
  }
}